{
  "address": "0xC7cd3cFe3DC2257dab4bF79b05C54067CaAFA9C3",
  "abi": [
    {
      "inputs": [
        {
          "internalType": "address",
          "name": "priceFeedAddress",
          "type": "address"
        }
      ],
      "stateMutability": "nonpayable",
      "type": "constructor"
    },
    {
      "inputs": [],
      "name": "Fundme__NotOwner",
      "type": "error"
    },
    {
      "anonymous": false,
      "inputs": [
        {
          "indexed": false,
          "internalType": "address",
          "name": "sender",
          "type": "address"
        },
        {
          "indexed": false,
          "internalType": "uint256",
          "name": "msg",
          "type": "uint256"
        }
      ],
      "name": "funded",
      "type": "event"
    },
    {
      "inputs": [],
      "name": "MINIMUM_USD",
      "outputs": [
        {
          "internalType": "uint256",
          "name": "",
          "type": "uint256"
        }
      ],
      "stateMutability": "view",
      "type": "function"
    },
    {
      "inputs": [],
      "name": "cheaperWithdraw",
      "outputs": [],
      "stateMutability": "nonpayable",
      "type": "function"
    },
    {
      "inputs": [],
      "name": "fund",
      "outputs": [],
      "stateMutability": "payable",
      "type": "function"
    },
    {
      "inputs": [
        {
          "internalType": "uint256",
          "name": "index",
          "type": "uint256"
        }
      ],
      "name": "getFunders",
      "outputs": [
        {
          "internalType": "address",
          "name": "",
          "type": "address"
        }
      ],
      "stateMutability": "view",
      "type": "function"
    },
    {
      "inputs": [],
      "name": "getOwner",
      "outputs": [
        {
          "internalType": "address",
          "name": "",
          "type": "address"
        }
      ],
      "stateMutability": "view",
      "type": "function"
    },
    {
      "inputs": [],
      "name": "getPriceFeed",
      "outputs": [
        {
          "internalType": "contract AggregatorV3Interface",
          "name": "",
          "type": "address"
        }
      ],
      "stateMutability": "view",
      "type": "function"
    },
    {
      "inputs": [
        {
          "internalType": "address",
          "name": "funder",
          "type": "address"
        }
      ],
      "name": "getaddressToAmountFunded",
      "outputs": [
        {
          "internalType": "uint256",
          "name": "",
          "type": "uint256"
        }
      ],
      "stateMutability": "view",
      "type": "function"
    },
    {
      "inputs": [],
      "name": "withdraw",
      "outputs": [],
      "stateMutability": "nonpayable",
      "type": "function"
    },
    {
      "stateMutability": "payable",
      "type": "receive"
    }
  ],
  "transactionHash": "0x2f015b9db6676163592e92248c3fe6ad898649ac6d3689329a20ea5a58450ea9",
  "args": [
    "0x8A753747A1Fa494EC906cE90E9f37563A8AF630e"
  ],
  "numDeployments": 1,
  "solcInputHash": "1e1f36e2564fc8d3bcc88db093ff1342",
  "bytecode": "0x60a06040523480156200001157600080fd5b50604051620013dd380380620013dd83398181016040528101906200003791906200011d565b3373ffffffffffffffffffffffffffffffffffffffff1660808173ffffffffffffffffffffffffffffffffffffffff168152505080600260006101000a81548173ffffffffffffffffffffffffffffffffffffffff021916908373ffffffffffffffffffffffffffffffffffffffff160217905550506200014f565b600080fd5b600073ffffffffffffffffffffffffffffffffffffffff82169050919050565b6000620000e582620000b8565b9050919050565b620000f781620000d8565b81146200010357600080fd5b50565b6000815190506200011781620000ec565b92915050565b600060208284031215620001365762000135620000b3565b5b6000620001468482850162000106565b91505092915050565b60805161126462000179600039600081816103800152818161060f015261065f01526112646000f3fe60806040526004361061007f5760003560e01c8063893d20e81161004e578063893d20e81461014f5780639e87a5cd1461017a578063b60d4288146101a5578063be2693f0146101af5761008e565b80633a7b6c74146100935780633ccfd60b146100d05780636b69a592146100e7578063832b1d2c146101125761008e565b3661008e5761008c6101c6565b005b600080fd5b34801561009f57600080fd5b506100ba60048036038101906100b59190610ab9565b610337565b6040516100c79190610b27565b60405180910390f35b3480156100dc57600080fd5b506100e561037e565b005b3480156100f357600080fd5b506100fc6105b8565b6040516101099190610b51565b60405180910390f35b34801561011e57600080fd5b5061013960048036038101906101349190610b98565b6105c2565b6040516101469190610b51565b60405180910390f35b34801561015b57600080fd5b5061016461060b565b6040516101719190610b27565b60405180910390f35b34801561018657600080fd5b5061018f610633565b60405161019c9190610c24565b60405180910390f35b6101ad6101c6565b005b3480156101bb57600080fd5b506101c461065d565b005b655af3107a4000610202600260009054906101000a900473ffffffffffffffffffffffffffffffffffffffff16346108fb90919063ffffffff16565b1015610243576040517f08c379a000000000000000000000000000000000000000000000000000000000815260040161023a90610cc2565b60405180910390fd5b6000339080600181540180825580915050600190039060005260206000200160009091909190916101000a81548173ffffffffffffffffffffffffffffffffffffffff021916908373ffffffffffffffffffffffffffffffffffffffff16021790555034600160003373ffffffffffffffffffffffffffffffffffffffff1673ffffffffffffffffffffffffffffffffffffffff16815260200190815260200160002060008282546102f59190610d11565b925050819055507fed7d0ddcc17abdb3935a0a23cd93e91b449dfeac7fd0def9f481ed5b37e18c4d333460405161032d929190610d67565b60405180910390a1565b600080828154811061034c5761034b610d90565b5b9060005260206000200160009054906101000a900473ffffffffffffffffffffffffffffffffffffffff169050919050565b7f000000000000000000000000000000000000000000000000000000000000000073ffffffffffffffffffffffffffffffffffffffff163373ffffffffffffffffffffffffffffffffffffffff1614610403576040517f85db10ab00000000000000000000000000000000000000000000000000000000815260040160405180910390fd5b60005b6000805490508110156104a85760006001600080848154811061042c5761042b610d90565b5b9060005260206000200160009054906101000a900473ffffffffffffffffffffffffffffffffffffffff1673ffffffffffffffffffffffffffffffffffffffff1673ffffffffffffffffffffffffffffffffffffffff1681526020019081526020016000208190555080806104a090610dbf565b915050610406565b50600067ffffffffffffffff8111156104c4576104c3610e08565b5b6040519080825280602002602001820160405280156104f25781602001602082028036833780820191505090505b50600090805190602001906105089291906109d7565b5060003373ffffffffffffffffffffffffffffffffffffffff164760405161052f90610e68565b60006040518083038185875af1925050503d806000811461056c576040519150601f19603f3d011682016040523d82523d6000602084013e610571565b606091505b50509050806105b5576040517f08c379a00000000000000000000000000000000000000000000000000000000081526004016105ac90610ec9565b60405180910390fd5b50565b655af3107a400081565b6000600160008373ffffffffffffffffffffffffffffffffffffffff1673ffffffffffffffffffffffffffffffffffffffff168152602001908152602001600020549050919050565b60007f0000000000000000000000000000000000000000000000000000000000000000905090565b6000600260009054906101000a900473ffffffffffffffffffffffffffffffffffffffff16905090565b7f000000000000000000000000000000000000000000000000000000000000000073ffffffffffffffffffffffffffffffffffffffff163373ffffffffffffffffffffffffffffffffffffffff16146106e2576040517f85db10ab00000000000000000000000000000000000000000000000000000000815260040160405180910390fd5b60008080548060200260200160405190810160405280929190818152602001828054801561076557602002820191906000526020600020905b8160009054906101000a900473ffffffffffffffffffffffffffffffffffffffff1673ffffffffffffffffffffffffffffffffffffffff168152602001906001019080831161071b575b5050505050905060005b81518110156107ea5760006001600084848151811061079157610790610d90565b5b602002602001015173ffffffffffffffffffffffffffffffffffffffff1673ffffffffffffffffffffffffffffffffffffffff1681526020019081526020016000208190555080806107e290610dbf565b91505061076f565b50600067ffffffffffffffff81111561080657610805610e08565b5b6040519080825280602002602001820160405280156108345781602001602082028036833780820191505090505b506000908051906020019061084a9291906109d7565b5060003373ffffffffffffffffffffffffffffffffffffffff164760405161087190610e68565b60006040518083038185875af1925050503d80600081146108ae576040519150601f19603f3d011682016040523d82523d6000602084013e6108b3565b606091505b50509050806108f7576040517f08c379a00000000000000000000000000000000000000000000000000000000081526004016108ee90610f35565b60405180910390fd5b5050565b60008061090783610937565b90506000670de0b6b3a764000082866109209190610f55565b61092a9190610fde565b9050809250505092915050565b6000808273ffffffffffffffffffffffffffffffffffffffff1663feaf968c6040518163ffffffff1660e01b815260040160a06040518083038186803b15801561098057600080fd5b505afa158015610994573d6000803e3d6000fd5b505050506040513d601f19601f820116820180604052508101906109b8919061109c565b5050509150506402540be400816109cf9190611117565b915050919050565b828054828255906000526020600020908101928215610a50579160200282015b82811115610a4f5782518260006101000a81548173ffffffffffffffffffffffffffffffffffffffff021916908373ffffffffffffffffffffffffffffffffffffffff160217905550916020019190600101906109f7565b5b509050610a5d9190610a61565b5090565b5b80821115610a7a576000816000905550600101610a62565b5090565b600080fd5b6000819050919050565b610a9681610a83565b8114610aa157600080fd5b50565b600081359050610ab381610a8d565b92915050565b600060208284031215610acf57610ace610a7e565b5b6000610add84828501610aa4565b91505092915050565b600073ffffffffffffffffffffffffffffffffffffffff82169050919050565b6000610b1182610ae6565b9050919050565b610b2181610b06565b82525050565b6000602082019050610b3c6000830184610b18565b92915050565b610b4b81610a83565b82525050565b6000602082019050610b666000830184610b42565b92915050565b610b7581610b06565b8114610b8057600080fd5b50565b600081359050610b9281610b6c565b92915050565b600060208284031215610bae57610bad610a7e565b5b6000610bbc84828501610b83565b91505092915050565b6000819050919050565b6000610bea610be5610be084610ae6565b610bc5565b610ae6565b9050919050565b6000610bfc82610bcf565b9050919050565b6000610c0e82610bf1565b9050919050565b610c1e81610c03565b82525050565b6000602082019050610c396000830184610c15565b92915050565b600082825260208201905092915050565b7f6e6f742073756666696369656e7420616d6f756e7420706c656173652063686560008201527f636b20616c736f207061796d656e747300000000000000000000000000000000602082015250565b6000610cac603083610c3f565b9150610cb782610c50565b604082019050919050565b60006020820190508181036000830152610cdb81610c9f565b9050919050565b7f4e487b7100000000000000000000000000000000000000000000000000000000600052601160045260246000fd5b6000610d1c82610a83565b9150610d2783610a83565b9250827fffffffffffffffffffffffffffffffffffffffffffffffffffffffffffffffff03821115610d5c57610d5b610ce2565b5b828201905092915050565b6000604082019050610d7c6000830185610b18565b610d896020830184610b42565b9392505050565b7f4e487b7100000000000000000000000000000000000000000000000000000000600052603260045260246000fd5b6000610dca82610a83565b91507fffffffffffffffffffffffffffffffffffffffffffffffffffffffffffffffff821415610dfd57610dfc610ce2565b5b600182019050919050565b7f4e487b7100000000000000000000000000000000000000000000000000000000600052604160045260246000fd5b600081905092915050565b50565b6000610e52600083610e37565b9150610e5d82610e42565b600082019050919050565b6000610e7382610e45565b9150819050919050565b7f7472616e73616374696f6e206661696c65640000000000000000000000000000600082015250565b6000610eb3601283610c3f565b9150610ebe82610e7d565b602082019050919050565b60006020820190508181036000830152610ee281610ea6565b9050919050565b7f7472616e73666572206973206661696c65640000000000000000000000000000600082015250565b6000610f1f601283610c3f565b9150610f2a82610ee9565b602082019050919050565b60006020820190508181036000830152610f4e81610f12565b9050919050565b6000610f6082610a83565b9150610f6b83610a83565b9250817fffffffffffffffffffffffffffffffffffffffffffffffffffffffffffffffff0483118215151615610fa457610fa3610ce2565b5b828202905092915050565b7f4e487b7100000000000000000000000000000000000000000000000000000000600052601260045260246000fd5b6000610fe982610a83565b9150610ff483610a83565b92508261100457611003610faf565b5b828204905092915050565b600069ffffffffffffffffffff82169050919050565b61102e8161100f565b811461103957600080fd5b50565b60008151905061104b81611025565b92915050565b6000819050919050565b61106481611051565b811461106f57600080fd5b50565b6000815190506110818161105b565b92915050565b60008151905061109681610a8d565b92915050565b600080600080600060a086880312156110b8576110b7610a7e565b5b60006110c68882890161103c565b95505060206110d788828901611072565b94505060406110e888828901611087565b93505060606110f988828901611087565b925050608061110a8882890161103c565b9150509295509295909350565b600061112282611051565b915061112d83611051565b9250827f7fffffffffffffffffffffffffffffffffffffffffffffffffffffffffffffff048211600084136000841316161561116c5761116b610ce2565b5b817f800000000000000000000000000000000000000000000000000000000000000005831260008412600084131616156111a9576111a8610ce2565b5b827f800000000000000000000000000000000000000000000000000000000000000005821260008413600084121616156111e6576111e5610ce2565b5b827f7fffffffffffffffffffffffffffffffffffffffffffffffffffffffffffffff058212600084126000841216161561122357611222610ce2565b5b82820290509291505056fea264697066735822122094e88f6221ddca108c514b6c0fccd567f44f1ee010e0b7c342eee75220bedd6464736f6c63430008090033",
  "devdoc": {
    "kind": "dev",
    "methods": {},
    "version": 1
  },
  "userdoc": {
    "kind": "user",
    "methods": {},
    "version": 1
  },
  "storageLayout": {
    "storage": [
      {
        "astId": 58,
        "contract": "contracts/fundme.sol:Fundme",
        "label": "s_funders",
        "offset": 0,
        "slot": "0",
        "type": "t_array(t_address)dyn_storage"
      },
      {
        "astId": 67,
        "contract": "contracts/fundme.sol:Fundme",
        "label": "s_addressToAmountFunded",
        "offset": 0,
        "slot": "1",
        "type": "t_mapping(t_address,t_uint256)"
      },
      {
        "astId": 72,
        "contract": "contracts/fundme.sol:Fundme",
        "label": "s_priceFeed",
        "offset": 0,
        "slot": "2",
        "type": "t_contract(AggregatorV3Interface)45"
      }
    ],
    "types": {
      "t_address": {
        "encoding": "inplace",
        "label": "address",
        "numberOfBytes": "20"
      },
      "t_array(t_address)dyn_storage": {
        "base": "t_address",
        "encoding": "dynamic_array",
        "label": "address[]",
        "numberOfBytes": "32"
      },
      "t_contract(AggregatorV3Interface)45": {
        "encoding": "inplace",
        "label": "contract AggregatorV3Interface",
        "numberOfBytes": "20"
      },
      "t_mapping(t_address,t_uint256)": {
        "encoding": "mapping",
        "key": "t_address",
        "label": "mapping(address => uint256)",
        "numberOfBytes": "32",
        "value": "t_uint256"
      },
      "t_uint256": {
        "encoding": "inplace",
        "label": "uint256",
        "numberOfBytes": "32"
      }
    }
  }
}